:020000040800F2
:10000000A8060020E1010008AB030008A3030008D4
:10001000A7030008E90200083105000800000000FD
:10002000000000000000000000000000C103000804
:10003000ED02000800000000AD030008EB0300081B
:10004000FB010008FB010008FB010008FB010008A0
:10005000FB010008FB010008FB010008FB01000890
:10006000FB010008FB010008FB010008FB01000880
:10007000FB010008FB010008FB010008FB01000870
:10008000FB010008FB010008FB010008FB01000860
:10009000FB010008FB010008FB010008FB01000850
:1000A000FB010008FB010008FB010008FB01000840
:1000B000FB010008FB010008FB010008FB01000830
:1000C000FB010008FB010008FB010008FB01000820
:1000D000FB010008FB010008FB010008FB01000810
:1000E000FB010008FB010008FB010008FB01000800
:1000F000FB010008FB010008FB010008FB010008F0
:10010000FB010008FB010008FB010008FB010008DF
:10011000FB010008FB010008FB010008FB010008CF
:10012000FB010008FB010008FB010008FB010008BF
:1001300000000000FB010008FB010008FB010008B3
:10014000FB01000800F002F800F03AF80AA090E87D
:10015000000C82448344AAF10107DA4501D100F082
:100160002FF8AFF2090EBAE80F0013F0010F18BF15
:10017000FB1A43F00103184780080000A0080000A4
:10018000103A24BF78C878C1FAD8520724BF30C8C3
:1001900030C144BF04680C60704700000023002495
:1001A00000250026103A28BF78C1FBD8520728BF87
:1001B00030C148BF0B6070471FB51FBD10B510BDE3
:1001C00000F031F81146FFF7F7FF00F0C1FB00F037
:1001D0004FF803B4FFF7F2FF03BC00F057F800003C
:1001E0000948804709480047FEE7FEE7FEE7FEE7CB
:1001F000FEE7FEE7FEE7FEE7FEE7FEE70448054907
:10020000054A064B70470000D1040008450100086C
:10021000A8000020A8060020A8020020A8020020B4
:10022000704770477047754600F02CF8AE460500E1
:100230006946534620F00700854618B020B5FFF701
:10024000DDFFBDE820404FF000064FF000074FF003
:1002500000084FF0000B21F00701AC46ACE8C009E4
:10026000ACE8C009ACE8C009ACE8C0098D467047ED
:1002700010B50446AFF300802046BDE81040FFF7FC
:10028000A8BF000000487047440000200149182022
:10029000ABBEFEE7260002007047000038B50446FA
:1002A0000E4951F8240000F083F80D4830F814008E
:1002B000ADF8000080208DF8030003208DF80200C7
:1002C000084951F82400694600F011F8044830F854
:1002D0001400044951F82410486138BDB8090008D9
:1002E000B40900081C00002000BFFEE77047F0B50D
:1002F000CF7807F00F06CF7807F080070FB18F781F
:100300003E430F78E7B104680023012215E00F880F
:1003100017407FB19D000F27AF40BC4306FA05F799
:100320003C43CF78282F01D1426103E0CF78482F9A
:1003300000D102615F1CFBB25200082BE7DB0460B6
:100340000F8807F47F47F7B1446808235A0117E084
:100350000F8817408FB1A3F10807BD000F27AF40EA
:10036000BC4306FA05F73C43CF78282F01D1426100
:1003700003E0CF78482F00D102615F1CFBB252002E
:10038000102BE5DB4460F0BD024693680B400BB1D7
:10039000012300E000231846704741617047016166
:1003A000704700BFFEE700BFFEE7704770470000E0
:1003B000024989690143014A916170470010024076
:1003C0007047012808D14FF0E021096941F004018C
:1003D0004FF0E022116107E04FF0E021096921F0C0
:1003E00004014FF0E02211617047704708B53448AE
:1003F000006820F4803000F580303149086000202A
:10040000009008E02E480068C0F3404000B106E0CC
:100410000098401C00900098B0F5485FF2D300BFF0
:1004200027480068C0F34040002848D025480068AD
:1004300020F010001030234908600846006820F0C2
:100440000700C01C08601E48406820F0F0001C49EE
:1004500048600846406820F460504860084640689C
:1004600020F4E06000F5806048600846406820F4B1
:10047000803000F5803048600846406820F47010F5
:1004800000F5501048600846006820F0807000F1C8
:100490008070086000BF0A480068C0F34060002810
:1004A000F9D00748406820F00300801C04494860E8
:1004B00000BF03484068C0F381000228F9D108BD9D
:1004C000001002400020024010B5FFF78FFF10BD62
:1004D00010B51348006820F00100401C1049086066
:1004E000084640680F4908400D49486008460068C2
:1004F0000D4908400A4908600846006820F4802039
:1005000008600846406820F4FE0048604FF41F0071
:100510008860FFF7D9FF4FF000600449086010BD04
:10052000001002400000FFF8FFFFF6FE08ED00E0BB
:1005300000BFFEE730B503460C46002106E0585CDC
:10054000655CA84201D0012030BD491C9142F6D320
:100550000020F9E710B50120FFF733FF07480068D6
:100560000749B0FBF1F007490860084600684FF4FE
:100570007A7148430449086010BD0000180000204B
:1005800040420F000000002004000020002131E064
:1005900032280ADD194A126832235A434FF0E02309
:1005A0005A61A0F1320290B206E0144A1268424346
:1005B0004FF0E0235A61002000224FF0E0239A61BF
:1005C0001A46126942F001021A6100BF4FF0E022A0
:1005D000116901F001021AB101F48032002AF5D04C
:1005E0004FF0E022126922F001024FF0E0231A617D
:1005F00000229A610028CBD170470000040000203F
:1006000001460020114A12684A434FF0E0235A6124
:1006100000229A611A46126942F001021A6100BF73
:100620004FF0E022106900F001021AB100F48032AC
:10063000002AF5D04FF0E022126922F001024FF0BB
:10064000E0231A6100229A61704700000000002038
:1006500006E00120FFF722FE4FF4FA70FFF796FF45
:10066000F7E7000010B540210948FFF796FE80210A
:100670000748FFF792FE00F033F840210448FFF7E7
:100680008EFE00F02DF840210148FFF786FE10BDD8
:10069000000C014008B50820FFF78AFE0820FFF78C
:1006A00087FE80210D48FFF77AFE40210B48FFF7B7
:1006B00076FE80208DF8030003208DF80200402094
:1006C000ADF8000069460548FFF711FE4020ADF87F
:1006D000000069460148FFF70AFE08BD000C014012
:1006E00010B50520FFF78CFF10BD2DE9F04106463F
:1006F0000F46154600F0C0F8F1B241F0010000F0DD
:100700008DF80A2000F0ECF8012804D100F0CEF8B2
:100710000120BDE8F08100240CE000F053F83855CA
:10072000681EA04202DDFFF79DFF01E000F032F8F5
:10073000601C84B2AC42F0DB00F0B8F80020E8E7BF
:100740002DE9F04105460E46174600F095F8E8B24F
:1007500000F064F80A2000F0C3F8012804D100F08A
:10076000A5F80120BDE8F08100240DE0305D00F027
:1007700055F80A2000F0B4F8012803D100F096F8EB
:100780000120EFE7601C84B2BC42EFDB00F08EF882
:100790000020E7E710B540210948FFF7FEFD802162
:1007A0000748FFF7FCFDFFF79BFF40210448FFF7D8
:1007B000F6FDFFF795FF40210148FFF7EEFD10BD64
:1007C000000C014070B50825002480211248FFF775
:1007D000E6FD15E06006040E40210F48FFF7DDFD41
:1007E000FFF77EFF40210C48FFF7D9FDFFF778FFA8
:1007F00080210948FFF7C8FD012801D144F0010418
:10080000281EA5F10101CDB2E4D140210248FFF735
:10081000C4FD204670BD0000000C014070B50446C8
:10082000082519E040211348FFF7B7FD04F08000C8
:1008300020B180210F48FFF7B2FD03E080210D4871
:10084000FFF7ABFDFFF74CFF6006040E402109489F
:10085000FFF7A5FDFFF744FF281EA5F10101CDB26A
:10086000E0D140210348FFF798FD80210148FFF7C0
:1008700096FD70BD000C014010B5FFF731FF8021DF
:100880000948FFF78CFD40210748FFF788FDFFF777
:1008900027FF80210448FFF780FDFFF721FF40215B
:1008A0000148FFF77AFD10BD000C014010B5402152
:1008B0000A48FFF772FD80210848FFF76EFDFFF739
:1008C0000FFF40210548FFF76AFDFFF709FF802170
:1008D0000248FFF764FDFFF703FF10BD000C014065
:1008E00010B5044640211948FFF757FD80211748ED
:1008F000FFF755FDFFF7F4FE18E080211348FFF7DE
:1009000043FD012800D100E0002058B940210F48E4
:10091000FFF745FDFFF7E4FE40210C48FFF73DFDE2
:10092000002010BDFFF7DCFE601EC4B2002CE4D135
:1009300040210648FFF733FDFFF7D2FE4021034870
:10094000FFF72BFDFFF7CCFE0120EAE7000C01408A
:1009500010B50020FFF7A2FC0120FFF79FFCFFF776
:10096000F9FDFFF797FE08221049A020FFF7E8FEE7
:10097000012801D1FFF76CFE0A20FFF707FE0822CD
:100980000B49A020FFF7B1FE012801D1FFF760FE5F
:10099000082207490548FFF7CDFD18B90020FFF7E9
:1009A0007DFC01E0FFF754FE002010BD0800002090
:1009B0001000002040002000400000004000000027
:1009C0000200010004000000040000000200010019
:1009D00000000100070600000040000000000200C7
:1009E00004000000040000000400000004000000F7
:1009F0000002040000040800180A0008000000209B
:100A000044000000800100085C0A00084400002047
:100A1000640600009C0100080000000000000000C7
:100A200001020304050607080000000000000000A2
:100A3000000E27070018014000180140000801407F
:100A40000008014000380140004400400008014017
:0C0A5000000801400008014000080140BF
:0400000508000145A9
:00000001FF
